:020000040800F2
:100000000018002045140008691300086F13000849
:10001000751300087B13000881130008000000001E
:10002000000000000000000000000000871300082E
:1000300093130008000000009F130008AB13000892
:100040008D1400088D1400088D1400088D1400080C
:100050008D1400088D1400088D1400088D140008FC
:100060008D1400088D1400088D1400088D140008EC
:100070008D1400088D1400088D1400088D140008DC
:100080008D1400088D1400088D1400088D140008CC
:100090008D1400088D1400088D1400088D140008BC
:1000A0008D1400088D1400088D140008B913000881
:1000B0008D1400088D140008000000008D14000845
:1000C0008D14000800000000000000008D140008DE
:1000D000000000008D1400088D14000800000000CE
:1000E0008D1400088D1400088D1400080000000015
:1000F0000000000000000000000000000000000000
:0C01000000000000000000005FF808F1A3
:1001100010B5054C237833B9044B13B10448AFF341
:1001200000800123237010BD70000020000000003B
:100130008836000808B5034B1BB103490348AFF3E9
:10014000008008BD00000000740000208836000810
:1001500081F0004102E000BF83F0004330B54FEA78
:1001600041044FEA430594EA050F08BF90EA020FE5
:100170001FBF54EA000C55EA020C7FEA645C7FEA78
:10018000655C00F0E2804FEA5454D4EB5555B8BF9B
:100190006D420CDD2C4480EA020281EA030382EA0C
:1001A000000083EA010180EA020281EA0303362D9E
:1001B00088BF30BD11F0004F4FEA01314FF4801C71
:1001C0004CEA113102D0404261EB410113F0004F83
:1001D0004FEA03334CEA133302D0524263EB43033A
:1001E00094EA050F00F0A780A4F10104D5F1200ED8
:1001F0000DDB02FA0EFC22FA05F2801841F1000133
:1002000003FA0EF2801843FA05F359410EE0A5F106
:1002100020050EF1200E012A03FA0EFC28BF4CF037
:10022000020C43FA05F3C01851EBE37101F00045ED
:1002300007D54FF0000EDCF1000C7EEB00006EEBFA
:100240000101B1F5801F1BD3B1F5001F0CD3490884
:100250005FEA30004FEA3C0C04F101044FEA4452DB
:1002600012F5800F80F09A80BCF1004F08BF5FEA62
:10027000500C50F1000041EB045141EA050130BD42
:100280005FEA4C0C404141EB0101013C28BFB1F554
:10029000801FE9D291F0000F04BF01460020B1FA9F
:1002A00081F308BF2033A3F10B03B3F120020CDA72
:1002B0000C3208DD02F1140CC2F10C0201FA0CF050
:1002C00021FA02F10CE002F11402D8BFC2F1200CB5
:1002D00001FA02F120FA0CFCDCBF41EA0C0190406B
:1002E000E41AA2BF01EB0451294330BD6FEA0404B4
:1002F0001F3C1CDA0C340EDC04F11404C4F120029F
:1003000020FA04F001FA02F340EA030021FA04F3B0
:1003100045EA030130BDC4F10C04C4F1200220FA07
:1003200002F001FA04F340EA0300294630BD21FA45
:1003300004F0294630BD94F0000F83F4801306BF0B
:1003400081F480110134013D4EE77FEA645C18BFFF
:100350007FEA655C29D094EA050F08BF90EA020F96
:1003600005D054EA000C04BF1946104630BD91EA8E
:10037000030F1EBF0021002030BD5FEA545C05D191
:100380004000494128BF41F0004130BD14F58004D0
:100390003CBF01F5801130BD01F0004545F0FE4144
:1003A00041F470014FF0000030BD7FEA645C1ABF79
:1003B000194610467FEA655C1CBF0B46024650EAB0
:1003C000013406BF52EA033591EA030F41F40021DC
:1003D00030BD00BF90F0000F04BF0021704730B562
:1003E0004FF4806404F132044FF000054FF0000137
:1003F00050E700BF90F0000F04BF0021704730B5F8
:100400004FF4806404F1320410F0004548BF4042CC
:100410004FF000013EE700BF42004FEAE2014FEA21
:1004200031014FEA02701FBF12F07F4393F07F4FFC
:1004300081F06051704732F07F4208BF704793F0FF
:100440007F4F04BF41F40021704730B54FF4607412
:1004500001F0004521F000411CE700BF50EA010215
:1004600008BF704730B54FF000050AE050EA0102BE
:1004700008BF704730B511F0004502D5404261EB2E
:1004800041014FF4806404F132045FEA915C3FF46F
:10049000D8AE4FF003025FEADC0C18BF03325FEA0C
:1004A000DC0C18BF033202EBDC02C2F1200300FABD
:1004B00003FC20FA02F001FA03FE40EA0E0021FAE2
:1004C00002F11444BDE600BF70B54FF0FF0C4CF4D0
:1004D000E06C1CEA11541DBF1CEA135594EA0C0F82
:1004E00095EA0C0F00F0DEF82C4481EA030621EABD
:1004F0004C5123EA4C5350EA013518BF52EA0335F8
:1005000041F4801143F4801338D0A0FB02CE4FF0A9
:100510000005E1FB02E506F00042E0FB03E54FF0D9
:100520000006E1FB03569CF0000F18BF4EF0010ED1
:10053000A4F1FF04B6F5007F64F5407404D25FEACD
:100540004E0E6D4146EB060642EAC62141EA555180
:100550004FEAC52040EA5E504FEACE2EB4F1FD0CC2
:1005600088BFBCF5E06F1ED8BEF1004F08BF5FEA40
:10057000500E50F1000041EB045170BD06F00046F2
:1005800046EA010140EA020081EA0301B4EB5C049F
:10059000C2BFD4EB0C0541EA045170BD41F4801197
:1005A0004FF0000E013C00F3AB8014F1360FDEBFBC
:1005B000002001F0004170BDC4F10004203C35DA98
:1005C0000C341BDC04F11404C4F1200500FA05F31B
:1005D00020FA04F001FA05F240EA020001F00042BC
:1005E00021F0004110EBD37021FA04F642EB060132
:1005F0005EEA430E08BF20EAD37070BDC4F10C045C
:10060000C4F1200500FA04F320FA05F001FA04F21F
:1006100040EA020001F0004110EBD37041F100010B
:100620005EEA430E08BF20EAD37070BDC4F1200516
:1006300000FA05F24EEA020E20FA04F301FA05F27E
:1006400043EA020321FA04F001F0004121FA04F226
:1006500020EA020000EBD3705EEA430E08BF20EAF6
:10066000D37070BD94F0000F0FD101F00046400030
:1006700041EB010111F4801F08BF013CF7D041EAB2
:10068000060195F0000F18BF704703F000465200B6
:1006900043EB030313F4801F08BF013DF7D043EA87
:1006A0000603704794EA0C0F0CEA135518BF95EA3D
:1006B0000C0F0CD050EA410618BF52EA4306D1D1C4
:1006C00081EA030101F000414FF0000070BD50EAE3
:1006D000410606BF1046194652EA430619D094EA6D
:1006E0000C0F02D150EA013613D195EA0C0F05D157
:1006F00052EA03361CBF104619460AD181EA0301AB
:1007000001F0004141F0FE4141F470014FF0000062
:1007100070BD41F0FE4141F4780170BD70B54FF0FD
:10072000FF0C4CF4E06C1CEA11541DBF1CEA13557D
:1007300094EA0C0F95EA0C0F00F0A7F8A4EB05045F
:1007400081EA030E52EA03354FEA013100F0888056
:100750004FEA03334FF0805545EA131343EA12631F
:100760004FEA022245EA111545EA10654FEA0026D4
:100770000EF000419D4208BF964244F1FD0404F58D
:10078000407402D25B084FEA3202B61A65EB0305E9
:100790005B084FEA32024FF480104FF4002CB6EBA6
:1007A000020E75EB030E22BFB61A754640EA0C0026
:1007B0005B084FEA3202B6EB020E75EB030E22BF66
:1007C000B61A754640EA5C005B084FEA3202B6EBA7
:1007D000020E75EB030E22BFB61A754640EA9C0066
:1007E0005B084FEA3202B6EB020E75EB030E22BF36
:1007F000B61A754640EADC0055EA060E18D04FEAF4
:10080000051545EA16754FEA06164FEAC30343EA93
:1008100052734FEAC2025FEA1C1CC0D111F4801F60
:100820000BD141EA00014FF000004FF0004CB6E759
:1008300011F4801F04BF01430020B4F1FD0C88BFF8
:10084000BCF5E06F3FF6AFAEB5EB030C04BFB6EB03
:10085000020C5FEA500C50F1000041EB045170BDF6
:100860000EF0004E4EEA113114EB5C04C2BFD4EB23
:100870000C0541EA045170BD41F480114FF0000EA7
:10088000013C90E645EA060E8DE60CEA135594EA23
:100890000C0F08BF95EA0C0F3FF43BAF94EA0C0F26
:1008A0000AD150EA01347FF434AF95EA0C0F7FF49B
:1008B00025AF104619462CE795EA0C0F06D152EAEF
:1008C00003353FF4FDAE1046194622E750EA4106D3
:1008D00018BF52EA43067FF4C5AE50EA41047FF4E4
:1008E0000DAF52EA43057FF4EBAE12E74A0011D296
:1008F00012F5001211D20DD56FF47873B3EB62527A
:100900000ED44FEAC12343F0004343EA505323FA85
:1009100002F070474FF00000704750EA013002D1FA
:100920004FF0FF3070474FF00000704780B483B045
:1009300000AF786002E07B68013B7B607B68002B46
:10094000F9D100BF00BF0C37BD4680BC704780B5F1
:1009500000AF4FF47A70FFF7E9FF00BF80BD0000E1
:1009600080B582B000AF0346FB71574B04225A6139
:10097000554B02225A61544B10225A61524B20228D
:100980005A61514B40225A614F4B80225A61FFF706
:10099000DEFF4D4BDB684C4A43F00203D360FB792A
:1009A00003F01003002B03D0474B10221A6103E021
:1009B000454B4FF480121A61FB7903F02003002BA2
:1009C00003D0414B20221A6103E03F4B4FF4001249
:1009D0001A61FB7903F04003002B03D03A4B40220D
:1009E0001A6103E0384B4FF480021A6197F907301F
:1009F000002B03DA344B80221A6103E0324B4FF4B0
:100A000000021A61FFF7A3FF2F4B02225A612E4BFF
:100A100010225A612C4B20225A612B4B40225A61E2
:100A2000294B80225A61FFF792FF274BDB68264A49
:100A300043F00203D360FB7903F00103002B03D0E2
:100A4000214B10221A6103E01F4B4FF480121A61F0
:100A5000FB7903F00203002B03D01B4B20221A6109
:100A600003E0194B4FF400121A61FB7903F0040301
:100A7000002B03D0144B40221A6103E0124B4FF4B9
:100A800080021A61FB7903F00803002B03D00E4BA0
:100A900080221A6103E00C4B4FF400021A61FFF749
:100AA00056FF094B02225A61074B10225A61064B2E
:100AB00020225A61044B40225A61034B80225A6122
:100AC00000BF0837BD4680BD0008014080B582B038
:100AD00000AF0346FB71594BDB68584A43F00403EF
:100AE000D360564B02225A61544B10225A61534B29
:100AF00020225A61514B40225A61504B80225A6148
:100B0000FFF725FF4D4BDB684C4A43F00203D360EF
:100B1000FB7903F01003002B03D0484B10221A611D
:100B200003E0464B4FF480121A61FB7903F0200377
:100B3000002B03D0414B20221A6103E03F4B4FF4BE
:100B400000121A61FB7903F04003002B03D03B4BEA
:100B500040221A6103E0394B4FF480021A6197F981
:100B60000730002B03DA354B80221A6103E0334B48
:100B70004FF400021A61FFF7EAFE304B02225A617D
:100B80002E4B10225A612D4B20225A612B4B4022B2
:100B90005A612A4B80225A61FFF7D9FE274BDB6846
:100BA000264A43F00203D360FB7903F00103002BD4
:100BB00003D0224B10221A6103E0204B4FF4801225
:100BC0001A61FB7903F00203002B03D01B4B202298
:100BD0001A6103E0194B4FF400121A61FB7903F01C
:100BE0000403002B03D0154B40221A6103E0134B82
:100BF0004FF480021A61FB7903F00803002B03D045
:100C00000E4B80221A6103E00C4B4FF400021A6174
:100C1000FFF79DFE094B02225A61084B10225A61D0
:100C2000064B20225A61054B40225A61034B802219
:100C30005A6100BF0837BD4680BD00BF00080140B3
:100C400080B582B000AF786008E0FFF780FE7B6877
:100C50005A1C7A601B781846FFF738FF7B681B78B0
:100C6000002BF2D1FFF773FE00BF0837BD4680BDF1
:100C700080B582B000AF0346FB710B46BB711346D3
:100C80007B71FA2000F066FC0220FFF769FE32203B
:100C900000F060FCFA79BB791343DAB27B79134335
:100CA000DBB243F02003DBB21846FFF759FE3220D7
:100CB00000F050FC0620FFF753FE322000F04AFC03
:100CC0000E20FFF74DFE322000F044FC0C20FFF711
:100CD00047FE322000F03EFC0120FFF741FE642079
:100CE00000F038FC00BF0837BD4680BD80B582B03B
:100CF00000AF03460A46FB711346BB71FB79012B1B
:100D000006D1BB797F33DBB21846FFF729FE08E036
:100D1000FB79022B05D1BB79413BDBB21846FFF7CB
:100D20001FFE00BF0837BD4680BD80B582B000AF52
:100D300003463A60FB710B46BB71BA79FB791146E9
:100D40001846FFF7D3FF3868FFF77AFF00BF083770
:100D5000BD4680BD80B483B000AF0346FB80084B26
:100D60001B6800225A6200BF054B1B685A6AFB8849
:100D70009A42F9D300BF00BF0C37BD4680BC704714
:100D80008C0000200000000080B582B000AF7860C9
:100D90007B681B7F012B40F08380454B1B78002B29
:100DA0001AD10021786801F06DFD0346414A1360B5
:100DB0003F4B01221A707B681B681A6A7B681B68AC
:100DC00022F00A021A627B681B681A6A7B681B6839
:100DD00042F002021A6263E0354B1B78012B5FD1AF
:100DE0000021786801F04EFD0346334A13607B68AA
:100DF0001B6800225A62304B1A682E4B1B689A42BD
:100E000007D92D4B1A682B4B1B68D31A2B4A13603A
:100E10000FE0284B1A68284B1B689A4209D9264BC9
:100E20001A68244B1B68D31A03F57F43FF33234A08
:100E30001360224B1B681846FFF7CCFA1AA3D3E9BC
:100E40000023FFF741FB02460B46104619464FF0C0
:100E500000024FF08043FFF761FC02460B4610464C
:100E60001946FFF743FD03469AB2154B1A80104B03
:100E700000221A707B681B681A6A7B681B6822F064
:100E80000A021A627B681A687B681B68126A1A6217
:100E90000C4B1B68DA680B4B1B6822F00202DA600D
:100EA00000BF0837BD4680BD8195438B6CE7D33FBB
:100EB000E0000020D4000020D8000020DC0000204A
:100EC000E20000208C00002080B500AF01224FF42A
:100ED00000710B4800F0ECFD0A20FFF73BFF0022F9
:100EE0004FF40071064800F0E3FD064B1B68DA681A
:100EF000044B1B6842F00202DA6000BF80BD00BFF5
:100F0000000801408C00002080B590B000AF00F0D8
:100F1000BFFA00F0ABF800F045F900F0EDF8002161
:100F20004C4801F015FA082200210020FFF7A0FE2E
:100F300020233B603B1D3C220021184601F022FF8C
:100F4000454A01210120FFF7F0FEFFF7BDFF434BAB
:100F50001B881A463B464249184601F01BFF3B4698
:100F60001A4601210220FFF7E0FE3E4A0521022039
:100F7000FFF7DBFE142000F0EDFA384B1B88B3F5C9
:100F8000967F1FD2354B1B88002B1BD000220821D7
:100F9000354800F08DFD01221021334800F088FD16
:100FA00001222021304800F083FD00224FF400513F
:100FB0002D4800F07DFD01224FF480412A4800F0C9
:100FC00077FD45E0254B1B88B3F5967F20D3234B57
:100FD0001B88B3F5C87F1BD201220821224800F0EC
:100FE00067FD00221021204800F062FD012220212F
:100FF0001D4800F05DFD01224FF400511A4800F039
:1010000057FD01224FF48041174800F051FD1FE0C9
:10101000124B1B88B3F5C87F97D3012208211248D1
:1010200000F046FD012210210F4800F041FD002292
:1010300020210D4800F03CFD01224FF400510A48E8
:1010400000F036FD00224FF48041074800F030FDEB
:101050007BE700BF8C000020A0360008E2000020E3
:10106000A8360008AC360008000C014080B590B0EE
:1010700000AF07F1180328220021184601F082FE74
:101080003B1D00221A605A609A60DA601A610123DF
:10109000BB614FF48033FB6100233B620123BB62E1
:1010A00002237B634FF48033BB634FF4E013FB6395
:1010B00007F11803184600F013FD0346002B01D07A
:1010C00000F0D2F80F237B600223BB600023FB609B
:1010D0004FF480633B6100237B613B1D0221184676
:1010E00000F080FF0346002B01D000F0BDF800BFE8
:1010F0004037BD4680BD000080B586B000AF07F127
:10110000100300221A605A603B4600221A605A609F
:101110009A60DA60214B224A1A60204B47225A60BB
:101120001E4B00229A601D4B4FF6FE72DA601B4B7D
:1011300000221A61194B00225A61184B00229A6151
:10114000164801F0B5F80346002B01D000F08CF8EA
:1011500000233B6100237B6107F1100319460F4810
:1011600001F07CFD0346002B01D000F07DF8002348
:101170003B6001237B600023BB600023FB603B4698
:1011800000221946054801F0E9FA0346002B01D078
:1011900000F06AF800BF1837BD4680BD8C00002003
:1011A000002C014080B588B000AF07F11003002289
:1011B0001A605A609A60DA60284B9B69274A43F0AC
:1011C00020039361254B9B6903F02003FB60FB68C0
:1011D000224B9B69214A43F0040393611F4B9B6997
:1011E00003F00403BB60BB681C4B9B691B4A43F0C4
:1011F00008039361194B9B6903F008037B607B68CC
:10120000002240F2F621164800F052FC002246F27D
:101210003801144800F04CFC40F2F6233B610123F6
:101220007B610023BB610223FB6107F110031946B8
:101230000B4800F0C1FA46F238033B6101237B61A1
:101240000023BB610223FB6107F110031946054827
:1012500000F0B2FA00BF2037BD4680BD001002404A
:1012600000080140000C014080B400AF72B600BF1E
:10127000FEE7000080B485B000AF154B9B69144AAF
:1012800043F001039361124B9B6903F00103BB60C0
:10129000BB680F4BDB690E4A43F08053D3610C4BA4
:1012A000DB6903F080537B607B680A4B5B68FB6003
:1012B000FB6823F0E063FB60FB6843F00073FB60B6
:1012C000044AFB68536000BF1437BD4680BC7047BA
:1012D000001002400000014080B588B000AF786087
:1012E00007F1100300221A605A609A60DA607B6886
:1012F0001B681A4A93422CD1194B9B69184A43F434
:1013000000639361164B9B6903F40063FB60FB6809
:10131000134B9B69124A43F004039361104B9B6982
:1013200003F00403BB60BB684FF480733B61002390
:101330007B610023BB6107F110031946094800F0E7
:101340003BFA002200211B2000F0FFF91B2000F0D7
:1013500018FA00BF2037BD4680BD00BF002C0140F9
:10136000001002400008014080B400AFFEE780B4E6
:1013700000AFFEE780B400AFFEE780B400AFFEE749
:1013800080B400AFFEE780B400AF00BFBD4680BCB4
:10139000704780B400AF00BFBD4680BC704780B4CA
:1013A00000AF00BFBD4680BC704780B500AF00F005
:1013B000B5F800BF80BD000080B500AF024801F065
:1013C000C5F800BF80BD00BF8C00002080B586B08E
:1013D00000AF7860144A154BD31A7B617B693B617F
:1013E000134B1B68002B02D1114B124A1A60104B91
:1013F0001A687B6813443A699A4207D201F098FC54
:1014000003460C221A604FF0FF3309E0084B1B68BB
:10141000FB60074B1A687B681344054A1360FB683E
:1014200018461837BD4680BD001800200004000093
:10143000E40000200001002080B400AF00BFBD46E2
:1014400080BC70470C480D490D4A002302E0D45877
:10145000C4500433C4188C42F9D30A4A0A4C0023FE
:1014600001E013600432A242FBD3FFF7E5FF01F075
:1014700065FCFFF749FD7047000000207000002068
:101480000C37000870000020FC000020FEE7000080
:1014900080B500AF084B1B68074A43F01003136088
:1014A000032000F047F90F2000F008F8FFF7E2FEF4
:1014B0000023184680BD00BF0020024080B582B0E6
:1014C00000AF7860124B1A68124B1B7819464FF424
:1014D0007A73B3FBF1F3B2FBF3F3184600F05FF954
:1014E0000346002B01D001230EE07B680F2B0AD8A6
:1014F000002279684FF0FF3000F027F9064A7B6838
:101500001360002300E0012318460837BD4680BD64
:1015100000000020080000200400002080B400AF7C
:10152000054B1B781A46054B1B681344034A13608E
:1015300000BFBD4680BC704708000020E8000020C6
:1015400080B400AF024B1B681846BD4680BC704794
:10155000E800002080B584B000AF7860FFF7F0FFAE
:10156000B8607B68FB60FB68B3F1FF3F05D00A4BB6
:101570001B781A46FB681344FB6000BFFFF7E0FFCF
:101580000246BB68D31AFA689A42F7D800BF00BF78
:101590001037BD4680BD00BF0800002080B485B074
:1015A00000AF78607B6803F00703FB600C4BDB68DF
:1015B000BB60BA684FF6FF031340BB60FB681A02BA
:1015C000BB68134343F0BF6343F40033BB60044A7A
:1015D000BB68D36000BF1437BD4680BC704700BFF6
:1015E00000ED00E080B400AF044BDB681B0A03F0A1
:1015F00007031846BD4680BC704700BF00ED00E001
:1016000080B483B000AF0346FB7197F90730002B1D
:101610000BDBFB7903F01F02064997F907305B09E2
:10162000012000FA02F241F8232000BF0C37BD462A
:1016300080BC704700E100E080B483B000AF034697
:101640003960FB7197F90730002B0ADB3B68DAB28F
:101650000C4997F907301201D2B20B4483F80023EA
:101660000AE03B68DAB20849FB7903F00F03043B58
:101670001201D2B20B441A7600BF0C37BD4680BCB3
:10168000704700BF00E100E000ED00E080B489B0E9
:1016900000AFF860B9607A60FB6803F00703FB6194
:1016A000FB69C3F10703042B28BF0423BB61FB695B
:1016B0000433062B02D9FB69033B00E000237B6166
:1016C0004FF0FF32BB6902FA03F3DA43BB681A40FA
:1016D0007B699A404FF0FF317B6901FA03F3D943EC
:1016E0007B680B40134318462437BD4680BC7047C7
:1016F00080B582B000AF78607B68013BB3F1807F3A
:1017000001D301230FE00A4A7B68013B53600F219C
:101710004FF0FF30FFF790FF054B00229A60044B1B
:1017200007221A60002318460837BD4680BD00BF57
:1017300010E000E080B582B000AF78607868FFF715
:101740002DFF00BF0837BD4680BD80B586B000AF15
:101750000346B9607A60FB7300237B61FFF742FFA9
:1017600078617A68B9687869FFF790FF024697F95F
:101770000F3011461846FFF75FFF00BF1837BD4610
:1017800080BD80B582B000AF0346FB7197F907308A
:101790001846FFF735FF00BF0837BD4680BD80B54E
:1017A00082B000AF78607868FFF7A2FF0346184662
:1017B0000837BD4680BD000080B48BB000AF7860B4
:1017C000396000237B6200233B6261E101227B6A76
:1017D00002FA03F3FB613B681B68FA691340BB61C3
:1017E000BA69FB699A4240F050813B685B68974A4E
:1017F00093425ED0954A934275D8954A934258D009
:10180000934A93426FD8934A934252D0914A93425B
:1018100069D8914A93424CD08F4A934263D88F4AF9
:10182000934246D08D4A93425DD8122B2AD8122B70
:1018300059D801A252F823F0B31800088D180008F7
:101840009F180008E1180008E7180008E7180008CA
:10185000E7180008E7180008E7180008E71800086C
:10186000E7180008E7180008E7180008E71800085C
:10187000E7180008E7180008E7180008951800089E
:10188000A9180008764A934213D02CE03B68DB6825
:101890003B6229E03B68DB6804333B6224E03B6841
:1018A000DB6808333B621FE03B68DB680C333B625C
:1018B0001AE03B689B68002B02D104233B6213E0D3
:1018C0003B689B68012B05D108233B627B68FA6962
:1018D0001A6109E008233B627B68FA695A6103E0F8
:1018E00000233B6200E000BFBB69FF2B01D87B688F
:1018F00001E07B6804337B61BB69FF2B02D87B6A04
:101900009B0002E07B6A083B9B003B617B691A6895
:101910000F213B6901FA03F3DB431A40396A3B6943
:1019200001FA03F31A437B691A603B685B6803F0B2
:101930008053002B00F0A9804A4B9B69494A43F031
:1019400001039361474B9B6903F00103BB60BB68D4
:10195000454A7B6A9B08023352F82330FB607B6A5E
:1019600003F003039B000F2202FA03F3DB43FA6840
:101970001340FB607B683D4A93420DD07B683C4A34
:10198000934207D07B683B4A934201D1022304E093
:10199000032302E0012300E000237A6A02F003023D
:1019A00092009340FA681343FB602F497B6A9B08BF
:1019B0000233FA6841F823203B685B6803F4803304
:1019C000002B06D02C4B1A682B49BB6913430B60C4
:1019D00006E0294B1A68BB69DB43274913400B60BB
:1019E0003B685B6803F40033002B06D0224B5A6837
:1019F0002149BB6913434B6006E01F4B5A68BB6922
:101A0000DB431D4913404B603B685B6803F4801364
:101A1000002B06D0184B9A681749BB6913438B609B
:101A200006E0154B9A68BB69DB43134913408B6092
:101A30003B685B6803F40013002B1FD00E4BDA6881
:101A40000D49BB691343CB601FE000BF000032109B
:101A500000003110000022100000211000001210C0
:101A60000000111000100240000001400008014079
:101A7000000C014000100140000401400B4BDA68EB
:101A8000BB69DB4309491340CB607B6A01337B624E
:101A90003B681A687B6A22FA03F3002B7FF496AE48
:101AA00000BF00BF2C37BD4680BC7047000401401A
:101AB00080B483B000AF78600B467B8013467B70A8
:101AC0007B78002B03D07A887B681A6103E07B88DF
:101AD0001A047B681A6100BF0C37BD4680BC704792
:101AE00080B586B000AF78607B68002B01D1012300
:101AF00072E27B681B6803F00103002B00F0878013
:101B0000924B5B6803F00C03042B0CD08F4B5B688B
:101B100003F00C03082B12D18C4B5B6803F4803369
:101B2000B3F5803F0BD1894B1B6803F40033002BC6
:101B30006CD07B685B68002B68D101234CE27B682A
:101B40005B68B3F5803F06D1804B1B687F4A43F446
:101B5000803313602EE07B685B68002B0CD17B4BDD
:101B60001B687A4A23F480331360784B1B68774AEA
:101B700023F4802313601DE07B685B68B3F5A02F1E
:101B80000CD1724B1B68714A43F4802313606F4B76
:101B90001B686E4A43F4803313600BE06B4B1B6889
:101BA0006A4A23F480331360684B1B68674A23F446
:101BB000802313607B685B68002B13D0FFF7C0FCA9
:101BC000386108E0FFF7BCFC02463B69D31A642B7E
:101BD00001D9032300E25D4B1B6803F40033002BA3
:101BE000F0D014E0FFF7ACFC386108E0FFF7A8FC88
:101BF00002463B69D31A642B01D90323ECE1534B12
:101C00001B6803F40033002BF0D100E000BF7B68B9
:101C10001B6803F00203002B63D04C4B5B6803F09E
:101C20000C03002B0BD0494B5B6803F00C03082B13
:101C30001CD1464B5B6803F48033002B16D1434B19
:101C40001B6803F00203002B05D07B681B69012B86
:101C500001D00123C0E13D4B1B6823F0F8027B68F3
:101C60005B69DB00394913430B603AE07B681B6911
:101C7000002B20D0364B01221A60FFF761FC38613F
:101C800008E0FFF75DFC02463B69D31A022B01D93D
:101C90000323A1E12D4B1B6803F00203002BF0D0BE
:101CA0002A4B1B6823F0F8027B685B69DB0027493D
:101CB00013430B6015E0264B00221A60FFF740FC2F
:101CC000386108E0FFF73CFC02463B69D31A022B5F
:101CD00001D9032380E11D4B1B6803F00203002B95
:101CE000F0D17B681B6803F00803002B3AD07B68B7
:101CF0009B69002B19D0174B01221A60FFF720FCBB
:101D0000386108E0FFF71CFC02463B69D31A022B3E
:101D100001D9032360E10D4B5B6A03F00203002B42
:101D2000F0D0012000F0A6FA1CE00A4B00221A6055
:101D3000FFF706FC38610FE0FFF702FC02463B6943
:101D4000D31A022B08D9032346E100BF001002403A
:101D50000000424280044242924B5B6A03F002035D
:101D6000002BE9D17B681B6803F00403002B00F013
:101D7000A6800023FB758B4BDB6903F08053002B9F
:101D80000DD1884BDB69874A43F08053D361854B83
:101D9000DB6903F08053BB60BB680123FB75824B9A
:101DA0001B6803F48073002B18D17F4B1B687E4A9D
:101DB00043F480731360FFF7C3FB386108E0FFF75B
:101DC000BFFB02463B69D31A642B01D9032303E10D
:101DD000754B1B6803F48073002BF0D07B68DB68C5
:101DE000012B06D16F4B1B6A6E4A43F0010313624D
:101DF0002DE07B68DB68002B0CD16A4B1B6A694ABB
:101E000023F001031362674B1B6A664A23F0040345
:101E100013621CE07B68DB68052B0CD1614B1B6AED
:101E2000604A43F0040313625E4B1B6A5D4A43F051
:101E3000010313620BE05B4B1B6A5A4A23F0010358
:101E40001362584B1B6A574A23F0040313627B68E2
:101E5000DB68002B15D0FFF773FB38610AE0FFF752
:101E60006FFB02463B69D31A41F28832934201D993
:101E70000323B1E04B4B1B6A03F00203002BEED0AF
:101E800014E0FFF75DFB38610AE0FFF759FB0246FB
:101E90003B69D31A41F28832934201D903239BE074
:101EA000404B1B6A03F00203002BEED1FB7D012B9C
:101EB00005D13C4BDB693B4A23F08053D3617B68FF
:101EC000DB69002B00F08780364B5B6803F00C0366
:101ED000082B61D07B68DB69022B46D1334B002293
:101EE0001A60FFF72DFB386108E0FFF729FB024677
:101EF0003B69D31A022B01D903236DE0294B1B68E0
:101F000003F00073002BF0D17B681B6AB3F5803FB0
:101F100008D1244B5B6823F400327B689B6821491D
:101F200013434B601F4B5B6823F474127B68196A80
:101F30007B685B6A0B431B4913434B601B4B0122BD
:101F40001A60FFF7FDFA386108E0FFF7F9FA024678
:101F50003B69D31A022B01D903233DE0114B1B68C7
:101F600003F00073002BF0D035E0104B00221A6014
:101F7000FFF7E6FA386108E0FFF7E2FA02463B694C
:101F8000D31A022B01D9032326E0064B1B6803F06A
:101F90000073002BF0D11EE07B68DB69012B07D1B9
:101FA000012319E00010024000700040600042422E
:101FB0000B4B5B68FB60FB6803F480327B681B6A39
:101FC0009A4206D1FB6803F470127B685B6A9A42FE
:101FD00001D0012300E0002318461837BD4680BD1C
:101FE0000010024080B584B000AF786039607B6833
:101FF000002B01D10123D0E06A4B1B6803F00703DB
:102000003A689A4210D9674B1B6823F0070265496A
:102010003B6813430B60634B1B6803F007033A688C
:102020009A4201D00123B8E07B681B6803F00203E9
:10203000002B20D07B681B6803F00403002B05D025
:10204000594B5B68584A43F4E06353607B681B68F4
:1020500003F00803002B05D0534B5B68524A43F44E
:1020600060535360504B5B6823F0F0027B689B68C1
:102070004D4913434B607B681B6803F00103002B41
:1020800040D07B685B68012B07D1474B1B6803F48A
:102090000033002B15D101237FE07B685B68022BA6
:1020A00007D1414B1B6803F00073002B09D10123BA
:1020B00073E03D4B1B6803F00203002B01D10123A9
:1020C0006BE0394B5B6823F003027B685B68364941
:1020D00013434B60FFF734FAF8600AE0FFF730FA79
:1020E0000246FB68D31A41F28832934201D9032396
:1020F00053E02D4B5B6803F00C027B685B689B0030
:102100009A42EBD1274B1B6803F007033A689A42C7
:1021100010D2244B1B6823F0070222493B6813436B
:102120000B60204B1B6803F007033A689A4201D00A
:10213000012332E07B681B6803F00403002B08D006
:10214000194B5B6823F4E0627B68DB681649134334
:102150004B607B681B6803F00803002B09D0124B0F
:102160005B6823F460527B681B69DB000E491343F4
:102170004B6000F021F802460B4B5B681B0903F033
:102180000F030A49CB5C22FA03F3094A1360094B97
:102190001B681846FFF792F9002318461037BD4612
:1021A00080BD00BF0020024000100240C036000881
:1021B000000000200400002090B48AB000AF294B3A
:1021C0003C1D0FCB84E80F0040F201233B8000232D
:1021D000FB610023BB6100237B6200237B61002342
:1021E0003B62214B5B68FB61FB6903F00C03042B32
:1021F00002D0082B03D02BE01C4B3B622BE0FB6989
:102200009B0C03F00F0328333B4413F8243C7B6101
:10221000FB6903F48033002B12D0134B5B685B0C1B
:1022200003F0010328333B4413F8283CBB617B696E
:102230000E4A03FB02F2BB69B2FBF3F37B6204E0DC
:102240007B690B4A02FB03F37B627B6A3B6202E021
:10225000064B3B6200BF3B6A18462837BD4690BC20
:10226000704700BFB03600080010024000127A002C
:1022700000093D0080B485B000AF78600A4B1B6850
:102280000A4AA2FB03235B0A7A6802FB03F3FB60A2
:1022900000BFFB685A1EFA60002BF9D100BF00BFD7
:1022A0001437BD4680BC704700000020D34D62103B
:1022B00080B582B000AF78607B68002B01D101232C
:1022C00041E07B6893F83D30DBB2002B06D17B68A0
:1022D000002283F83C207868FEF7FEFF7B6802222C
:1022E00083F83D207B681A687B68043319461046E2
:1022F00000F030FB7B68012283F846207B680122D6
:1023000083F83E207B68012283F83F207B6801220E
:1023100083F840207B68012283F841207B680122FA
:1023200083F842207B68012283F843207B680122E6
:1023300083F844207B68012283F845207B680122D2
:1023400083F83D20002318460837BD4680BD0000B5
:1023500080B584B000AF786039603B68002B04D151
:102360007B6893F83E30DBB213E03B68042B04D16A
:102370007B6893F83F30DBB20BE03B68082B04D15D
:102380007B6893F84030DBB203E07B6893F8413020
:10239000DBB2FB733B68002B04D17B6893F84230BF
:1023A000DBB213E03B68042B04D17B6893F8433025
:1023B000DBB20BE03B68082B04D17B6893F8443018
:1023C000DBB203E07B6893F84530DBB2BB73FB7B89
:1023D000012B02D1BB7B012B01D00123AEE03B6876
:1023E000002B04D17B68022283F83E2013E03B6877
:1023F000042B04D17B68022283F83F200BE03B686A
:10240000082B04D17B68022283F8402003E07B681C
:10241000022283F841203B68002B04D17B68022212
:1024200083F8422013E03B68042B04D17B6802222E
:1024300083F843200BE03B68082B04D17B68022221
:1024400083F8442003E07B68022283F845203B6840
:102450000C2B41D801A252F823F000BF91240008B0
:10246000D9240008D9240008D9240008A32400088E
:10247000D9240008D9240008D9240008B52400086C
:10248000D9240008D9240008D9240008C72400084A
:102490007B681B68DA687B681B6842F00202DA60BE
:1024A0001BE07B681B68DA687B681B6842F00402EB
:1024B000DA6012E07B681B68DA687B681B6842F0B0
:1024C0000802DA6009E07B681B68DA687B681B68D1
:1024D00042F01002DA6000E000BF7B681B68012256
:1024E0003968184600F095FB7B681B68154A9342D3
:1024F00009D07B681B68B3F1804F04D07B681B68F0
:10250000114A934211D17B681B689B6803F0070353
:10251000BB60BB68062B10D07B681B681A687B68A1
:102520001B6842F001021A6007E07B681B681A68AA
:102530007B681B6842F001021A60002318461037BE
:10254000BD4680BD002C01400004004080B582B033
:1025500000AF78607B681B681B6903F00203022BE5
:1025600022D17B681B68DB6803F00203022B1BD1BE
:102570007B681B686FF002021A617B6801221A7780
:102580007B681B689B6903F00303002B03D078680A
:10259000FEF7FAFB05E0786800F0C1F9786800F012
:1025A000C7F97B6800221A777B681B681B6903F0F8
:1025B0000403042B22D17B681B68DB6803F004034F
:1025C000042B1BD17B681B686FF004021A617B68C7
:1025D00002221A777B681B689B6903F44073002B07
:1025E00003D07868FEF7D0FB05E0786800F097F933
:1025F000786800F09DF97B6800221A777B681B6879
:102600001B6903F00803082B22D17B681B68DB6879
:1026100003F00803082B1BD17B681B686FF00802CE
:102620001A617B6804221A777B681B68DB6903F0F8
:102630000303002B03D07868FEF7A6FB05E078685B
:1026400000F06DF9786800F073F97B6800221A7762
:102650007B681B681B6903F01003102B22D17B6879
:102660001B68DB6803F01003102B1BD17B681B6811
:102670006FF010021A617B6808221A777B681B686A
:10268000DB6903F44073002B03D07868FEF77CFB12
:1026900005E0786800F043F9786800F049F97B6854
:1026A00000221A777B681B681B6903F00103012B6A
:1026B0000ED17B681B68DB6803F00103012B07D197
:1026C0007B681B686FF001021A61786800F01EF9E0
:1026D0007B681B681B6903F08003802B0ED17B682D
:1026E0001B68DB6803F08003802B07D17B681B68C5
:1026F0006FF080021A61786800F011FB7B681B683C
:102700001B6903F04003402B0ED17B681B68DB681C
:1027100003F04003402B07D17B681B686FF0400239
:102720001A61786800F00DF97B681B681B6903F07B
:102730002003202B0ED17B681B68DB6803F020038D
:10274000202B07D17B681B686FF020021A61786824
:1027500000F0DCFA00BF0837BD4680BD80B584B00C
:1027600000AFF860B9607A60FB6893F83C30012BE9
:1027700001D1022382E0FB68012283F83C207B68C0
:10278000002B1BD1FB681868BB681968BB685A68C6
:10279000BB68DB6800F036F9FB681B689A69FB6868
:1027A0001B6822F00C029A61FB681B689969BB6880
:1027B0009A68FB681B680A439A615AE07B68042B9D
:1027C0001CD1FB681868BB681968BB685A68BB688D
:1027D000DB6800F06BF9FB681B689A69FB681B6893
:1027E00022F440629A61FB681B689969BB689B6828
:1027F0001A02FB681B680A439A613AE07B68082B5F
:102800001BD1FB681868BB681968BB685A68BB684D
:10281000DB6800F087F9FB681B68DA69FB681B68F6
:1028200022F00C02DA61FB681B68D969BB689A6800
:10283000FB681B680A43DA611BE0FB681868BB6829
:102840001968BB685A68BB68DB6800F0A6F9FB68CA
:102850001B68DA69FB681B6822F44062DA61FB6876
:102860001B68D969BB689B681A02FB681B680A432E
:10287000DA61FB68002283F83C20002318461037F9
:10288000BD4680BD80B485B000AF7860396000235C
:10289000FB603B680C2B31D801A252F823F000BF3B
:1028A000D5280008FD280008FD280008FD2800089C
:1028B000DF280008FD280008FD280008FD28000882
:1028C000E9280008FD280008FD280008FD28000868
:1028D000F32800087B681B685B6BFB600FE07B687C
:1028E0001B689B6BFB600AE07B681B68DB6BFB6013
:1028F00005E07B681B681B6CFB6000E000BFFB68A9
:1029000018461437BD4680BC704700BF80B483B002
:1029100000AF786000BF0C37BD4680BC704780B404
:1029200083B000AF786000BF0C37BD4680BC7047F5
:1029300080B483B000AF786000BF0C37BD4680BC68
:10294000704780B483B000AF786000BF0C37BD46DD
:1029500080BC704780B485B000AF786039607B6818
:102960001B68FB607B68254A934207D07B68B3F104
:10297000804F03D07B68224A934208D1FB6823F042
:102980007003FB603B685B68FA681343FB607B681D
:102990001A4A934207D07B68B3F1804F03D07B681B
:1029A000174A934208D1FB6823F44073FB603B68ED
:1029B000DB68FA681343FB60FB6823F080023B6826
:1029C0005B691343FB607B68FA681A603B689A682E
:1029D0007B68DA623B681A687B689A627B68074AA0
:1029E000934203D13B681A697B681A637B680122B2
:1029F0005A6100BF1437BD4680BC7047002C0140AF
:102A00000004004080B487B000AFF860B9607A601D
:102A10003B60FB681B6A23F00102FB681A62FB68DB
:102A20009B697B61FB681B6A3B61FB681D4A9342A3
:102A300007D0FB68B3F1804F03D0FB681A4A93427A
:102A400001D1012300E00023002B08D07B6923F093
:102A500003037B617A697B6813437B6103E07B69D5
:102A600043F001037B617B6923F0F0037B613B68EA
:102A70001B01DBB27A6913437B613B6923F00A03D4
:102A80003B61BB6803F00A033A6913433B61FB688F
:102A90007A699A61FB683A691A6200BF1C37BD46C1
:102AA00080BC7047002C01400004004080B487B017
:102AB00000AFF860B9607A603B60FB681B6A23F086
:102AC0001002FB681A62FB689B697B61FB681B6AEA
:102AD0003B617B6923F440737B617B681B027A69ED
:102AE00013437B617B6923F470437B613B681B0369
:102AF0009BB27A6913437B613B6923F0A0033B617E
:102B0000BB681B0103F0A0033A6913433B61FB68F8
:102B10007A699A61FB683A691A6200BF1C37BD4640
:102B200080BC704780B487B000AFF860B9607A604D
:102B30003B60FB681B6A23F48072FB681A62FB68C7
:102B4000DB697B61FB681B6A3B617B6923F00303E4
:102B50007B617A697B6813437B617B6923F0F003B7
:102B60007B613B681B01DBB27A6913437B613B6984
:102B700023F400733B61BB681B0203F400733A69E2
:102B800013433B61FB687A69DA61FB683A691A6250
:102B900000BF1C37BD4680BC704780B487B000AF13
:102BA000F860B9607A603B60FB681B6A23F480526E
:102BB000FB681A62FB68DB697B61FB681B6A3B612F
:102BC0007B6923F440737B617B681B027A69134342
:102BD0007B617B6923F470437B613B681B039BB281
:102BE0007A6913437B613B6923F400533B61BB6803
:102BF0001B0303F400533A6913433B61FB687A6992
:102C0000DA61FB683A691A6200BF1C37BD4680BCB6
:102C1000704780B487B000AFF860B9607A60BB6875
:102C200003F01F03012202FA03F37B61FB681A6AB7
:102C30007B69DB431A40FB681A62FB681A6ABB684F
:102C400003F01F03796801FA03F31A43FB681A6261
:102C500000BF1C37BD4680BC7047000080B485B003
:102C600000AF786039607B6893F83C30012B01D16C
:102C7000022341E07B68012283F83C207B6802222A
:102C800083F83D207B681B685B68FB607B681B6882
:102C90009B68BB60FB6823F07003FB603B681B68AC
:102CA000FA681343FB607B681B68FA685A607B68AC
:102CB0001B68144A934209D07B681B68B3F1804FAC
:102CC00004D07B681B68104A93420CD1BB6823F088
:102CD0008003BB603B685B68BA681343BB607B687A
:102CE0001B68BA689A607B68012283F83D207B6884
:102CF000002283F83C20002318461437BD4680BCD0
:102D0000704700BF002C01400004004080B483B035
:102D100000AF786000BF0C37BD4680BC704780B400
:102D200083B000AF786000BF0C37BD4680BC7047F1
:102D3000014B1868704700BF0C00002070B50026DA
:102D40000C4D0D4C641BA410A64209D100F09CFC54
:102D500000260A4D0A4C641BA410A64205D170BD82
:102D600055F8043B98470136EEE755F8043B984781
:102D70000136F2E70437000804370008043700087A
:102D80000837000803460244934200D1704703F815
:102D9000011BF9E70EB46FF0004100B59CB01DAB0C
:102DA00002900690079104910848094953F8042BB2
:102DB0000591006802A9019300F068F80022029BC7
:102DC0001A701CB05DF804EB03B070470C000020D3
:102DD0000802FFFF2DE9F0478E6882469E420C46AE
:102DE00090461F4638D88A8912F4906F32D02568F1
:102DF00009690133A5EB010965694B4405EB4505FC
:102E000005EBD5756D109D4238BF1D46530531D574
:102E1000294600F06FFB064650B90C234FF0FF30F7
:102E2000CAF80030A38943F04003A381BDE8F087CE
:102E30004A46216900F0CEFAA38923F4906343F057
:102E40008003A38126614E4426603E466561A5EB62
:102E50000905A560BE4200D93E463246414620687B
:102E600000F0C6FAA36800209B1BA36023683344CC
:102E70002360DBE72A4600F0B1FB06460028E1D1DB
:102E80005046216900F0CEFAC7E700002DE9F04F67
:102E900098468B8907461B060D4614469DB00ED5F5
:102EA0000B6963B9402100F025FB2860286120B937
:102EB0000C233B604FF0FF30D1E040236B610023D7
:102EC000099320238DF8293030234FF00109CDF8E4
:102ED0000C80DFF8A4818DF82A3023469A4613F837
:102EE000012B0AB1252AF9D1BAEB040B0BD05B46B2
:102EF000224629463846FFF76DFF013000F0AA80D0
:102F0000099A5A4409929AF80030002B00F0A280E6
:102F100000234FF0FF32CDE905230AF1010A0493A3
:102F200007938DF853301A935446052214F8011B69
:102F3000514800F041FA049AD8B9D00644BF202382
:102F40008DF85330110744BF2B238DF853309AF876
:102F500000302A2B15D0544600204FF00A0C079A57
:102F6000214611F8013B303B092B4ED9B0B10792F5
:102F700014E0A0EB080309FA03F31343A2460493F9
:102F8000D2E7039B191D1B680391002BBBBF5B425B
:102F900042F0020207930793B8BF049223782E2BC6
:102FA0000CD163782A2B35D1039B02341A1D1B6880
:102FB0000392002BB8BF4FF0FF330593DFF8BCA09E
:102FC00003225046217800F0F7F940B14023A0EBEE
:102FD0000A0003FA00F0049B01340343049314F83D
:102FE000011B062226488DF8281000F0E5F900287C
:102FF00038D0244B1BBB039B073323F00703083354
:103000000393099B3344099367E70C4601200CFBAB
:103010000232A5E700234FF00A0C1946013405934C
:10302000204610F8012B303A092A03D9002BC5D0CD
:103030000591C3E7044601230CFB0121F0E703AB34
:1030400000932A463846104B04A9AFF30080421C77
:103050000646D6D1AB895B063FF52CAF09981DB06B
:10306000BDE8F08F03AB00932A463846064B04A90F
:1030700000F07CF8EBE700BFD0360008D636000839
:10308000DA36000800000000D52D00082DE9F047D1
:10309000164699468A680B6907469342B8BF13469D
:1030A000336091F843200C46DDF820800AB10133EB
:1030B00033602368990642BF336802333360256862
:1030C00015F0060506D104F1190AE36832689B1A67
:1030D000AB4228DC94F84320131E226818BF01235A
:1030E00092062DD44946384604F14302C0470130C8
:1030F00020D02368E56803F00603042B18BF0025E1
:1031000032684FF00006A36808BFAD1A226908BFF5
:1031100025EAE5759342C4BF9B1AED181A34B542EF
:103120001AD1002008E00123524649463846C047DC
:10313000013003D14FF0FF30BDE8F0870135C4E71F
:103140003020E11881F843005A1C94F845102244BD
:10315000023382F84310C5E7012322464946384628
:10316000C0470130E6D00136D9E700002DE9FF471E
:103170000F7E9146782F80460C469A460C9D01F1B1
:10318000430207D8622F0AD8002F00F0D980582FA9
:1031900000F0A48004F1420584F842703AE0A7F1FF
:1031A0006303152BF6D801A151F823F0053200086E
:1031B0001932000895310008953100089531000852
:1031C0009531000819320008953100089531000842
:1031D000953100089531000827330008493200086E
:1031E000093300089531000895310008493300087B
:1031F00095310008493200089531000895310008E2
:10320000113300082B681A1D1B682A6004F142055F
:1032100084F842300123A4E020682968060601F101
:1032200004030AD50E682B60002E03DA2D237642A4
:1032300084F843300A235E4819E00E6810F0400F0E
:103240002B6018BF36B2EFE72B682068191D296084
:10325000010601D51E6802E04606FBD51E886F2FC9
:103260000CBF08230A235248002184F843106568E4
:10327000002DA8BF2168A560A4BF21F00401216032
:103280000EB9002D4DD01546B6FBF3F103FB1167C7
:10329000C75D05F8017D3746BB420E46F4D9082BC1
:1032A0000BD12368DE0708D5236961689942DEBF28
:1032B000302305F8013C05F1FF35521B22614B46D6
:1032C00021464046CDF800A003AAFFF7DFFE0130FB
:1032D0004CD14FF0FF3004B0BDE8F087344881F89E
:1032E00045702968236851F8046B29601D0614D5C0
:1032F000DF0744BF43F0200323601EB9236823F097
:10330000200323601023AFE7236843F020032360EA
:103310007823284884F84530E3E7590648BFB6B219
:10332000E6E71546BBE72B682668181D616928602B
:1033300035061B6801D5196002E07006FBD51980BF
:10334000002315462361BAE72B6800211A1D2A6065
:103350001D686268284600F02FF808B1401B6060C5
:1033600063682361002384F84330A8E72A4649466E
:1033700040462369D0470130ABD023689B0713D464
:10338000E068039B9842B8BF1846A4E70123324681
:1033900049464046D04701309BD00135E368039948
:1033A0005B1AAB42F2DCEBE7002504F11906F5E706
:1033B000E1360008F2360008034610B5C9B20244EF
:1033C0009342184601D1002003E0047801338C4277
:1033D000F6D110BD0A44914200F1FF3300D170478D
:1033E00010B511F8014B914203F8014FF9D110BD0E
:1033F000884210B501EB020402D98442234607D863
:10340000431EA14208D011F8012B03F8012FF8E761
:10341000014602448A4200D110BD13F8014D02F862
:10342000014DF7E738B50546002940D051F8043C76
:103430000C1F002BB8BFE41800F010F91C4A1368E9
:1034400033B9636014602846BDE8384000F00CB919
:10345000A34208D9206821188B4201BF19685B6814
:1034600009182160EDE71A465B680BB1A342FAD94F
:1034700011685018A0420BD12068014450188342B3
:103480001160E0D118685B68014411605360DAE7AD
:1034900002D90C232B60D6E7206821188B4201BF8C
:1034A00019685B680918216063605460CBE738BD18
:1034B000EC00002070B50E4E0C463168054611B97F
:1034C00000F0BCF830602146284600F0B7F8431CF5
:1034D0000AD0C41C24F00304A04207D0211A2846B5
:1034E00000F0ACF8013001D14FF0FF34204670BD40
:1034F000F00000202DE9F041CD1C25F00305083532
:103500000C2D38BF0C25002D074601DBA94205D93B
:103510000C2300263B603046BDE8F0812E4E00F0C3
:103520009DF833681C4634BB29463846FFF7C2FF76
:10353000431C04464DD134682646002E40D12368F2
:103540003146384604EB030800F078F880453AD15C
:10355000216803356D1A25F0030508350C2D38BF99
:103560000C2538462946FFF7A5FF01302BD02368EC
:103570002B4423600EE02268521B1ED40B2A16D95E
:103580006119A342256018BF5960636808BF3160A4
:1035900062514B60384604F10B0600F065F826F0E6
:1035A0000706231DF21AB6D09B1BA350B3E762682F
:1035B000A3420CBF32605A60ECE723466468B2E76E
:1035C00034467668B9E70C2338463B6000F04CF887
:1035D000A1E72560DEE700BFEC0000202DE9F04107
:1035E000804614460E4621B91146BDE8F041FFF76A
:1035F00081BF2AB9FFF716FF25462846BDE8F081AE
:1036000000F038F88442074602D8B4EB500F12D8C5
:1036100021464046FFF76EFF05460028EDD0BC422C
:103620002246314628BF3A46FFF7D4FE314640468F
:10363000FFF7F8FEE1E73546DFE7000038B5002385
:10364000054D044608462B60FDF7C0FE431C02D121
:103650002B6803B1236038BDF4000020014800F05E
:1036600011B800BFF8000020014800F00CB800BFFE
:10367000F800002051F8043C181F002BBCBF0B5869
:10368000C018704770477047F8B500BFF8BC08BC59
:103690009E467047F8B500BFF8BC08BC9E46704710
:1036A0004D6573616665000025640000434D0000B0
:1036B00002030405060708090A0B0C0D0E0F101073
:1036C00000000000000000000102030406070809D2
:1036D000232D302B2000686C4C00656667454647FB
:1036E000003031323334353637383941424344457E
:1036F00046003031323334353637383961626364ED
:0437000065660000FA
:043704003501000883
:0437080011010008A3
:10370C000024F40010000000010000001000002054
:10371C00000000000000000000000000000000009D
:10372C00000000000000000000000000000000008D
:10373C00000000000000000000000000000000007D
:10374C00000000000000000000000000000000006D
:10375C00000000000000000000000000000000005D
:10376C00000000000000000000000000000000004D
:040000050800144596
:00000001FF
